{
  "_format": "hh-sol-artifact-1",
  "contractName": "Sender",
  "sourceName": "contracts/Sender.sol",
  "abi": [
    {
      "inputs": [
        {
          "internalType": "address",
          "name": "_wormhole",
          "type": "address"
        }
      ],
      "stateMutability": "nonpayable",
      "type": "constructor"
    },
    {
      "inputs": [],
      "name": "owner",
      "outputs": [
        {
          "internalType": "address",
          "name": "",
          "type": "address"
        }
      ],
      "stateMutability": "view",
      "type": "function"
    },
    {
      "inputs": [
        {
          "internalType": "bytes",
          "name": "message",
          "type": "bytes"
        }
      ],
      "name": "sendMessage",
      "outputs": [],
      "stateMutability": "nonpayable",
      "type": "function"
    },
    {
      "inputs": [],
      "name": "wormhole",
      "outputs": [
        {
          "internalType": "address",
          "name": "",
          "type": "address"
        }
      ],
      "stateMutability": "view",
      "type": "function"
    }
  ],
  "bytecode": "0x608060405234801561001057600080fd5b506040516107c23803806107c28339818101604052810190610032919061011c565b336000806101000a81548173ffffffffffffffffffffffffffffffffffffffff021916908373ffffffffffffffffffffffffffffffffffffffff16021790555080600160006101000a81548173ffffffffffffffffffffffffffffffffffffffff021916908373ffffffffffffffffffffffffffffffffffffffff16021790555050610149565b600080fd5b600073ffffffffffffffffffffffffffffffffffffffff82169050919050565b60006100e9826100be565b9050919050565b6100f9816100de565b811461010457600080fd5b50565b600081519050610116816100f0565b92915050565b600060208284031215610132576101316100b9565b5b600061014084828501610107565b91505092915050565b61066a806101586000396000f3fe608060405234801561001057600080fd5b50600436106100415760003560e01c806382646a581461004657806384acd1bb146100625780638da5cb5b14610080575b600080fd5b610060600480360381019061005b9190610377565b61009e565b005b61006a6101d3565b6040516100779190610401565b60405180910390f35b6100886101f9565b6040516100959190610401565b60405180910390f35b60008054906101000a900473ffffffffffffffffffffffffffffffffffffffff1673ffffffffffffffffffffffffffffffffffffffff163373ffffffffffffffffffffffffffffffffffffffff161461012c576040517f08c379a000000000000000000000000000000000000000000000000000000000815260040161012390610479565b60405180910390fd5b600160009054906101000a900473ffffffffffffffffffffffffffffffffffffffff1673ffffffffffffffffffffffffffffffffffffffff1663b19a437e428360016040518463ffffffff1660e01b815260040161018c93929190610589565b6020604051808303816000875af11580156101ab573d6000803e3d6000fd5b505050506040513d601f19601f820116820180604052508101906101cf9190610607565b5050565b600160009054906101000a900473ffffffffffffffffffffffffffffffffffffffff1681565b60008054906101000a900473ffffffffffffffffffffffffffffffffffffffff1681565b6000604051905090565b600080fd5b600080fd5b600080fd5b600080fd5b6000601f19601f8301169050919050565b7f4e487b7100000000000000000000000000000000000000000000000000000000600052604160045260246000fd5b6102848261023b565b810181811067ffffffffffffffff821117156102a3576102a261024c565b5b80604052505050565b60006102b661021d565b90506102c2828261027b565b919050565b600067ffffffffffffffff8211156102e2576102e161024c565b5b6102eb8261023b565b9050602081019050919050565b82818337600083830152505050565b600061031a610315846102c7565b6102ac565b90508281526020810184848401111561033657610335610236565b5b6103418482856102f8565b509392505050565b600082601f83011261035e5761035d610231565b5b813561036e848260208601610307565b91505092915050565b60006020828403121561038d5761038c610227565b5b600082013567ffffffffffffffff8111156103ab576103aa61022c565b5b6103b784828501610349565b91505092915050565b600073ffffffffffffffffffffffffffffffffffffffff82169050919050565b60006103eb826103c0565b9050919050565b6103fb816103e0565b82525050565b600060208201905061041660008301846103f2565b92915050565b600082825260208201905092915050565b7f53656e6465723a2063616c6c6572206973206e6f7420746865206f776e657200600082015250565b6000610463601f8361041c565b915061046e8261042d565b602082019050919050565b6000602082019050818103600083015261049281610456565b9050919050565b600063ffffffff82169050919050565b6104b281610499565b82525050565b600081519050919050565b600082825260208201905092915050565b60005b838110156104f25780820151818401526020810190506104d7565b60008484015250505050565b6000610509826104b8565b61051381856104c3565b93506105238185602086016104d4565b61052c8161023b565b840191505092915050565b6000819050919050565b600060ff82169050919050565b6000819050919050565b600061057361056e61056984610537565b61054e565b610541565b9050919050565b61058381610558565b82525050565b600060608201905061059e60008301866104a9565b81810360208301526105b081856104fe565b90506105bf604083018461057a565b949350505050565b600067ffffffffffffffff82169050919050565b6105e4816105c7565b81146105ef57600080fd5b50565b600081519050610601816105db565b92915050565b60006020828403121561061d5761061c610227565b5b600061062b848285016105f2565b9150509291505056fea2646970667358221220fb84af6d85fb55e44c35a31fbf346998b7c60a32493d4adce5b3e187174f80ce64736f6c634300081b0033",
  "linkReferences": {},
  "deployedLinkReferences": {}
}